:0600000019C0FECFFDCF88
:10000600FCCFFBCFFACFF9CFF8CFF7CFF6CFF5CFAE
:10001600F4CFF3CFF2CFF1CFF0CFEFCFEECFEDCFDE
:1000260035C0EBCF010002000C002A000000F89456
:10003600EE27ECBBF1E0FBBFEBBFE5BFF8E1F1BD9E
:10004600E1BD8DE0A2E0BB27ED938A95E9F780E05C
:1000560092E0A0E6ED930197E9F7ECE2F0E08591F6
:100066009591009761F0A591B59105901590BF0106
:10007600F00105900D920197E1F7FB01F0CFEFE556
:10008600EDBFE2E0EEBFC0EED0E07CC0EA93FA93AB
:10009600EFB7EA93F20131962F01EEE0F0E04E164B
:1000A6005F0608F46AC044245524F30131963F01E3
:1000B600909B02C0909801C0909AEAE0F0E0D0D000
:1000C60081F0EAE1F0E0CCD061F0EAE2F0E0C8D0FD
:1000D60041F0EAE3F0E0C4D021F0EAE4F0E0C0D079
:1000E60031F4E0EF6E227724F30170963F01EAE5E2
:1000F600F0E0B6D029F466247724F40131964F0156
:10010600EAE0F0E0B0D081F0EAE1F0E0ACD061F0F6
:10011600EAE2F0E0A8D041F0EAE3F0E0A4D021F072
:10012600EAE4F0E0A0D031F4E0EF8E229924F40165
:1001360070964F01EAE5F0E096D029F488249924D8
:10014600F50131965F01EAE0F0E0EA15FB0529F0DA
:10015600EAE1F0E0EA15FB0531F4E0EFAE22BB245C
:10016600F50170965F01E4E2F0E0EA15FB0511F493
:10017600AA24BB2465BA8BBAA8BAE991EFBFF99154
:10018600E9911895E0E0EBBBEFEFEABBE0E0E8BBF6
:10019600EFEFE7BBE0E0E5BBEFEFE4BBE2BBE1E09E
:1001A600E1BBEFEFEABBE0E0EBBBEFEFE7BBE0E084
:1001B600E8BBEFEFE4BBE0E0E5BBEDEFE1BBE0E081
:1001C600E2BBE3BFE2BFECBFEFBDEEBDEDBDECBDF4
:1001D600E7BDE6BDEBBDEABDE9BDE8BDE2BDE5BDF7
:1001E600E4BDE3BDE9BFE5BFE4BFEAB9E0E8E8B9CD
:1001F600E0E0E0BFE6B9EDB9E6BFE1E0F0E0EC151E
:10020600FD05F9F4879903C0F50170965F0186999B
:1002160003C0F50131965F01859903C0F40170961C
:100226004F01849903C0F40131964F01839903C0AD
:10023600E2E0F0E06F0165BA8BBAA8BAA4E6B0E0D6
:1002460015D0E2E0F0E0EC15FD0541F4E9BF829936
:1002560003C0E1E0F0E06F01E0E0E9BFCECFFFCF01
:10026600E615F7050895E815F9050895109639F08D
:1002760088EE93E00197F1F7A8951197C9F70895CD
:00000001FF
